{
  "contractName": "SimpleStorage",
  "abi": [
    {
      "constant": true,
      "inputs": [],
      "name": "certCount",
      "outputs": [
        {
          "internalType": "uint256",
          "name": "",
          "type": "uint256"
        }
      ],
      "payable": false,
      "stateMutability": "view",
      "type": "function"
    },
    {
      "constant": true,
      "inputs": [],
      "name": "issuer",
      "outputs": [
        {
          "internalType": "address",
          "name": "",
          "type": "address"
        }
      ],
      "payable": false,
      "stateMutability": "view",
      "type": "function"
    },
    {
      "constant": false,
      "inputs": [
        {
          "internalType": "string",
          "name": "_recipient",
          "type": "string"
        },
        {
          "internalType": "string",
          "name": "_certIpfsHash",
          "type": "string"
        }
      ],
      "name": "registerCert",
      "outputs": [],
      "payable": false,
      "stateMutability": "nonpayable",
      "type": "function"
    },
    {
      "constant": true,
      "inputs": [
        {
          "internalType": "string",
          "name": "code",
          "type": "string"
        }
      ],
      "name": "checkCert",
      "outputs": [
        {
          "internalType": "bool",
          "name": "",
          "type": "bool"
        }
      ],
      "payable": false,
      "stateMutability": "view",
      "type": "function"
    },
    {
      "constant": false,
      "inputs": [
        {
          "internalType": "string",
          "name": "code",
          "type": "string"
        }
      ],
      "name": "revokeCert",
      "outputs": [],
      "payable": false,
      "stateMutability": "nonpayable",
      "type": "function"
    },
    {
      "constant": true,
      "inputs": [
        {
          "internalType": "string",
          "name": "code",
          "type": "string"
        }
      ],
      "name": "getCert",
      "outputs": [
        {
          "internalType": "string",
          "name": "",
          "type": "string"
        },
        {
          "internalType": "string",
          "name": "",
          "type": "string"
        },
        {
          "internalType": "bool",
          "name": "",
          "type": "bool"
        }
      ],
      "payable": false,
      "stateMutability": "view",
      "type": "function"
    }
  ],
  "bytecode": "0x608060405234801561001057600080fd5b50610db7806100206000396000f3fe608060405234801561001057600080fd5b50600436106100625760003560e01c80631d143848146100675780637181a313146100b15780637b20351b14610184578063c8e407e01461032f578063d4e207a214610481578063e0eb38d61461049f575b600080fd5b61006f61055a565b604051808273ffffffffffffffffffffffffffffffffffffffff1673ffffffffffffffffffffffffffffffffffffffff16815260200191505060405180910390f35b61016a600480360360208110156100c757600080fd5b81019080803590602001906401000000008111156100e457600080fd5b8201836020820111156100f657600080fd5b8035906020019184600183028401116401000000008311171561011857600080fd5b91908080601f016020809104026020016040519081016040528093929190818152602001838380828437600081840152601f19601f820116905080830192505050505050509192919290505050610580565b604051808215151515815260200191505060405180910390f35b61023d6004803603602081101561019a57600080fd5b81019080803590602001906401000000008111156101b757600080fd5b8201836020820111156101c957600080fd5b803590602001918460018302840111640100000000831117156101eb57600080fd5b91908080601f016020809104026020016040519081016040528093929190818152602001838380828437600081840152601f19601f820116905080830192505050505050509192919290505050610706565b60405180806020018060200184151515158152602001838103835286818151815260200191508051906020019080838360005b8381101561028b578082015181840152602081019050610270565b50505050905090810190601f1680156102b85780820380516001836020036101000a031916815260200191505b50838103825285818151815260200191508051906020019080838360005b838110156102f15780820151818401526020810190506102d6565b50505050905090810190601f16801561031e5780820380516001836020036101000a031916815260200191505b509550505050505060405180910390f35b61047f6004803603604081101561034557600080fd5b810190808035906020019064010000000081111561036257600080fd5b82018360208201111561037457600080fd5b8035906020019184600183028401116401000000008311171561039657600080fd5b91908080601f016020809104026020016040519081016040528093929190818152602001838380828437600081840152601f19601f820116905080830192505050505050509192919290803590602001906401000000008111156103f957600080fd5b82018360208201111561040b57600080fd5b8035906020019184600183028401116401000000008311171561042d57600080fd5b91908080601f016020809104026020016040519081016040528093929190818152602001838380828437600081840152601f19601f8201169050808301925050505050505091929192905050506109ec565b005b610489610b16565b6040518082815260200191505060405180910390f35b610558600480360360208110156104b557600080fd5b81019080803590602001906401000000008111156104d257600080fd5b8201836020820111156104e457600080fd5b8035906020019184600183028401116401000000008311171561050657600080fd5b91908080601f016020809104026020016040519081016040528093929190818152602001838380828437600081840152601f19601f820116905080830192505050505050509192919290505050610b1c565b005b600260009054906101000a900473ffffffffffffffffffffffffffffffffffffffff1681565b6000806000905060008090505b6001548210156106fc57836040516020018082805190602001908083835b602083106105ce57805182526020820191506020810190506020830392506105ab565b6001836020036101000a038019825116818451168082178552505050505050905001915050604051602081830303815290604052805190602001206000838154811061061657fe5b906000526020600020906004020160020160405160200180828054600181600116156101000203166002900480156106855780601f10610663576101008083540402835291820191610685565b820191906000526020600020905b815481529060010190602001808311610671575b5050915050604051602081830303815290604052805190602001201480156106dc575060011515600083815481106106b957fe5b906000526020600020906004020160030160009054906101000a900460ff161515145b156106ea57600190506106ef565b600090505b818060010192505061058d565b8092505050919050565b606080600080600090505b6001548110156109e357846040516020018082805190602001908083835b60208310610752578051825260208201915060208101905060208303925061072f565b6001836020036101000a038019825116818451168082178552505050505050905001915050604051602081830303815290604052805190602001206000828154811061079a57fe5b906000526020600020906004020160020160405160200180828054600181600116156101000203166002900480156108095780601f106107e7576101008083540402835291820191610809565b820191906000526020600020905b8154815290600101906020018083116107f5575b50509150506040516020818303038152906040528051906020012014156109d6576000818154811061083757fe5b90600052602060002090600402016001016000828154811061085557fe5b90600052602060002090600402016002016000838154811061087357fe5b906000526020600020906004020160030160009054906101000a900460ff16828054600181600116156101000203166002900480601f0160208091040260200160405190810160405280929190818152602001828054600181600116156101000203166002900480156109275780601f106108fc57610100808354040283529160200191610927565b820191906000526020600020905b81548152906001019060200180831161090a57829003601f168201915b50505050509250818054600181600116156101000203166002900480601f0160208091040260200160405190810160405280929190818152602001828054600181600116156101000203166002900480156109c35780601f10610998576101008083540402835291602001916109c3565b820191906000526020600020905b8154815290600101906020018083116109a657829003601f168201915b50505050509150935093509350506109e5565b8080600101915050610711565b505b9193909250565b600260009054906101000a900473ffffffffffffffffffffffffffffffffffffffff1673ffffffffffffffffffffffffffffffffffffffff163373ffffffffffffffffffffffffffffffffffffffff1614610a4657600080fd5b6001600081548092919060010191905055506000604051806080016040528060015481526020018481526020018381526020016001151581525090806001815401808255809150509060018203906000526020600020906004020160009091929091909150600082015181600001556020820151816001019080519060200190610ad1929190610cdd565b506040820151816002019080519060200190610aee929190610cdd565b5060608201518160030160006101000a81548160ff0219169083151502179055505050505050565b60015481565b600260009054906101000a900473ffffffffffffffffffffffffffffffffffffffff1673ffffffffffffffffffffffffffffffffffffffff163373ffffffffffffffffffffffffffffffffffffffff1614610b7657600080fd5b60008090505b600154811015610cd957816040516020018082805190602001908083835b60208310610bbd5780518252602082019150602081019050602083039250610b9a565b6001836020036101000a0380198251168184511680821785525050505050509050019150506040516020818303038152906040528051906020012060008281548110610c0557fe5b90600052602060002090600402016002016040516020018082805460018160011615610100020316600290048015610c745780601f10610c52576101008083540402835291820191610c74565b820191906000526020600020905b815481529060010190602001808311610c60575b5050915050604051602081830303815290604052805190602001201415610ccc576000808281548110610ca357fe5b906000526020600020906004020160030160006101000a81548160ff0219169083151502179055505b8080600101915050610b7c565b5050565b828054600181600116156101000203166002900490600052602060002090601f016020900481019282601f10610d1e57805160ff1916838001178555610d4c565b82800160010185558215610d4c579182015b82811115610d4b578251825591602001919060010190610d30565b5b509050610d599190610d5d565b5090565b610d7f91905b80821115610d7b576000816000905550600101610d63565b5090565b9056fea265627a7a723158206f6b795f998764aebdc12eb8e3321036881704f81a13c6afc8fd5d9477234c1564736f6c63430005100032",
  "source": "pragma solidity >=0.4.21 <0.7.0;\n\n\n/**\n  *@title smart contract for IFI Certificat Management System\n  *@dev Prototyp : Minimum Viable Product\n  *@author AMALA Gane Kwada\n*/\n\ncontract SimpleStorage {\n  struct Cert{\n    uint id;\n    string recipient;\n    string certIpfsHash;\n    bool valid;\n  }\n  Cert[] certificats;\n  uint public certCount;\n  address public issuer;\n  \n  // @dev Restruction for certificate issuer\n    modifier onlyIssuer() {\n        require(msg.sender == issuer);\n        _;\n    }\n  /**\n    *@dev Registrate the certificate\n    *@param _recipient recipient name ou address\n    *@param _certIpfsHash hash generate by IPFS\n  */\n  function registerCert(string memory _recipient, string memory _certIpfsHash) public onlyIssuer{\n    certCount++;\n    certificats.push(Cert(certCount, _recipient, _certIpfsHash, true));\n  }\n  /**\n    *@dev Check the validity the certificate\n    *@param _code ipfs hash or qrCode\n  */\n  function checkCert(string memory code) public view returns (bool) {\n    uint counter = 0;\n    bool verified = false;\n    while(counter<certCount){\n      if((keccak256(abi.encodePacked(certificats[counter].certIpfsHash))==keccak256(abi.encodePacked(code)))&&\n      certificats[counter].valid==true){\n        verified = true;\n      } else {\n        verified = false;\n      }\n      counter ++;\n    }\n    return verified; \n  }\n  /**\n    *@dev Change validity the certificate\n    *@param _code : ipfs hash or qrCode\n  */\n  function revokeCert(string memory code) public onlyIssuer{\n    uint counter = 0;\n    while(counter<certCount){\n      if((keccak256(abi.encodePacked(certificats[counter].certIpfsHash))==keccak256(abi.encodePacked(code)))){\n        certificats[counter].valid=false;\n      }\n      counter ++;\n    }\n\n  }\n\n  /**\n    *@dev Get certificate\n    *@param _code : ipfs hash or qrCode\n  */\n  function getCert(string memory code) public view returns (string memory, string memory, bool){\n    uint counter = 0;\n    while(counter<certCount){\n      if((keccak256(abi.encodePacked(certificats[counter].certIpfsHash))==keccak256(abi.encodePacked(code)))){\n        return (certificats[counter].recipient, certificats[counter].certIpfsHash, certificats[counter].valid);\n      }\n      counter ++;\n    }\n  }\n\n}\n",
  "sourcePath": "/home/amala/Bureau/ipfs_test/contracts/SimpleStorage.sol",
  "compiler": {
    "name": "solc",
    "version": "0.5.16+commit.9c3226ce.Emscripten.clang"
  },
  "schemaVersion": "3.2.5",
  "updatedAt": "2020-10-04T17:29:46.158Z",
  "devdoc": {
    "methods": {}
  },
  "userdoc": {
    "methods": {
      "checkCert(string)": {
        "notice": "dev Check the validity the certificate param _code ipfs hash or qrCode"
      },
      "getCert(string)": {
        "notice": "dev Get certificate param _code : ipfs hash or qrCode"
      },
      "registerCert(string,string)": {
        "notice": "dev Registrate the certificate param _recipient recipient name ou address param _certIpfsHash hash generate by IPFS"
      },
      "revokeCert(string)": {
        "notice": "dev Change validity the certificate param _code : ipfs hash or qrCode"
      }
    },
    "notice": "title smart contract for IFI Certificat Management System dev Prototyp : Minimum Viable Product author AMALA Gane Kwada"
  }
}